{"abi":[{"type":"constructor","inputs":[],"stateMutability":"nonpayable"},{"type":"function","name":"approve","inputs":[{"name":"to","type":"address","internalType":"address"},{"name":"tokenId","type":"uint256","internalType":"uint256"}],"outputs":[],"stateMutability":"nonpayable"},{"type":"function","name":"balanceOf","inputs":[{"name":"owner","type":"address","internalType":"address"}],"outputs":[{"name":"","type":"uint256","internalType":"uint256"}],"stateMutability":"view"},{"type":"function","name":"buyToken","inputs":[{"name":"tokenId","type":"uint256","internalType":"uint256"}],"outputs":[],"stateMutability":"payable"},{"type":"function","name":"createAndListToken","inputs":[{"name":"tokenURI","type":"string","internalType":"string"},{"name":"price","type":"uint256","internalType":"uint256"}],"outputs":[],"stateMutability":"payable"},{"type":"function","name":"getApproved","inputs":[{"name":"tokenId","type":"uint256","internalType":"uint256"}],"outputs":[{"name":"","type":"address","internalType":"address"}],"stateMutability":"view"},{"type":"function","name":"getSellerListedTokensCount","inputs":[{"name":"seller","type":"address","internalType":"address"}],"outputs":[{"name":"","type":"uint256","internalType":"uint256"}],"stateMutability":"view"},{"type":"function","name":"isApprovedForAll","inputs":[{"name":"owner","type":"address","internalType":"address"},{"name":"operator","type":"address","internalType":"address"}],"outputs":[{"name":"","type":"bool","internalType":"bool"}],"stateMutability":"view"},{"type":"function","name":"name","inputs":[],"outputs":[{"name":"","type":"string","internalType":"string"}],"stateMutability":"view"},{"type":"function","name":"ownerOf","inputs":[{"name":"tokenId","type":"uint256","internalType":"uint256"}],"outputs":[{"name":"","type":"address","internalType":"address"}],"stateMutability":"view"},{"type":"function","name":"safeTransferFrom","inputs":[{"name":"from","type":"address","internalType":"address"},{"name":"to","type":"address","internalType":"address"},{"name":"tokenId","type":"uint256","internalType":"uint256"}],"outputs":[],"stateMutability":"nonpayable"},{"type":"function","name":"safeTransferFrom","inputs":[{"name":"from","type":"address","internalType":"address"},{"name":"to","type":"address","internalType":"address"},{"name":"tokenId","type":"uint256","internalType":"uint256"},{"name":"data","type":"bytes","internalType":"bytes"}],"outputs":[],"stateMutability":"nonpayable"},{"type":"function","name":"setApprovalForAll","inputs":[{"name":"operator","type":"address","internalType":"address"},{"name":"approved","type":"bool","internalType":"bool"}],"outputs":[],"stateMutability":"nonpayable"},{"type":"function","name":"supportsInterface","inputs":[{"name":"interfaceId","type":"bytes4","internalType":"bytes4"}],"outputs":[{"name":"","type":"bool","internalType":"bool"}],"stateMutability":"view"},{"type":"function","name":"symbol","inputs":[],"outputs":[{"name":"","type":"string","internalType":"string"}],"stateMutability":"view"},{"type":"function","name":"tokenURI","inputs":[{"name":"tokenId","type":"uint256","internalType":"uint256"}],"outputs":[{"name":"","type":"string","internalType":"string"}],"stateMutability":"view"},{"type":"function","name":"transferFrom","inputs":[{"name":"from","type":"address","internalType":"address"},{"name":"to","type":"address","internalType":"address"},{"name":"tokenId","type":"uint256","internalType":"uint256"}],"outputs":[],"stateMutability":"nonpayable"},{"type":"event","name":"Approval","inputs":[{"name":"owner","type":"address","indexed":true,"internalType":"address"},{"name":"approved","type":"address","indexed":true,"internalType":"address"},{"name":"tokenId","type":"uint256","indexed":true,"internalType":"uint256"}],"anonymous":false},{"type":"event","name":"ApprovalForAll","inputs":[{"name":"owner","type":"address","indexed":true,"internalType":"address"},{"name":"operator","type":"address","indexed":true,"internalType":"address"},{"name":"approved","type":"bool","indexed":false,"internalType":"bool"}],"anonymous":false},{"type":"event","name":"BatchMetadataUpdate","inputs":[{"name":"_fromTokenId","type":"uint256","indexed":false,"internalType":"uint256"},{"name":"_toTokenId","type":"uint256","indexed":false,"internalType":"uint256"}],"anonymous":false},{"type":"event","name":"MetadataUpdate","inputs":[{"name":"_tokenId","type":"uint256","indexed":false,"internalType":"uint256"}],"anonymous":false},{"type":"event","name":"TokenListed","inputs":[{"name":"tokenId","type":"uint256","indexed":true,"internalType":"uint256"},{"name":"owner","type":"address","indexed":false,"internalType":"address"},{"name":"price","type":"uint256","indexed":false,"internalType":"uint256"},{"name":"isListed","type":"bool","indexed":false,"internalType":"bool"}],"anonymous":false},{"type":"event","name":"Transfer","inputs":[{"name":"from","type":"address","indexed":true,"internalType":"address"},{"name":"to","type":"address","indexed":true,"internalType":"address"},{"name":"tokenId","type":"uint256","indexed":true,"internalType":"uint256"}],"anonymous":false},{"type":"error","name":"ERC721IncorrectOwner","inputs":[{"name":"sender","type":"address","internalType":"address"},{"name":"tokenId","type":"uint256","internalType":"uint256"},{"name":"owner","type":"address","internalType":"address"}]},{"type":"error","name":"ERC721InsufficientApproval","inputs":[{"name":"operator","type":"address","internalType":"address"},{"name":"tokenId","type":"uint256","internalType":"uint256"}]},{"type":"error","name":"ERC721InvalidApprover","inputs":[{"name":"approver","type":"address","internalType":"address"}]},{"type":"error","name":"ERC721InvalidOperator","inputs":[{"name":"operator","type":"address","internalType":"address"}]},{"type":"error","name":"ERC721InvalidOwner","inputs":[{"name":"owner","type":"address","internalType":"address"}]},{"type":"error","name":"ERC721InvalidReceiver","inputs":[{"name":"receiver","type":"address","internalType":"address"}]},{"type":"error","name":"ERC721InvalidSender","inputs":[{"name":"sender","type":"address","internalType":"address"}]},{"type":"error","name":"ERC721NonexistentToken","inputs":[{"name":"tokenId","type":"uint256","internalType":"uint256"}]}],"bytecode":{"object":"0x6080604052600160075566038d7ea4c6800060095534801561002057600080fd5b506040518060400160405280600e81526020016d13585c9ad95d1c1b1858d953919560921b81525060405180604001604052806005815260200164135413919560da1b8152508160009081610075919061013d565b506001610082828261013d565b5050600880546001600160a01b03191633179055506101fc565b634e487b7160e01b600052604160045260246000fd5b600181811c908216806100c657607f821691505b6020821081036100e657634e487b7160e01b600052602260045260246000fd5b50919050565b601f821115610138576000816000526020600020601f850160051c810160208610156101155750805b601f850160051c820191505b8181101561013457828155600101610121565b5050505b505050565b81516001600160401b038111156101565761015661009c565b61016a8161016484546100b2565b846100ec565b602080601f83116001811461019f57600084156101875750858301515b600019600386901b1c1916600185901b178555610134565b600085815260208120601f198616915b828110156101ce578886015182559484019460019091019084016101af565b50858210156101ec5787850151600019600388901b60f8161c191681555b5050505050600190811b01905550565b6118a58061020b6000396000f3fe6080604052600436106100f35760003560e01c80636352211e1161008a578063b88d4fde11610059578063b88d4fde14610292578063bf57382c146102b2578063c87b56dd146102e8578063e985e9c51461030857600080fd5b80636352211e1461020f57806370a082311461022f57806395d89b411461025d578063a22cb4651461027257600080fd5b806323b872dd116100c657806323b872dd146101a95780632d296bf1146101c957806342842e0e146101dc5780635f0bc118146101fc57600080fd5b806301ffc9a7146100f857806306fdde031461012d578063081812fc1461014f578063095ea7b314610187575b600080fd5b34801561010457600080fd5b50610118610113366004611310565b610328565b60405190151581526020015b60405180910390f35b34801561013957600080fd5b50610142610353565b604051610124919061137d565b34801561015b57600080fd5b5061016f61016a366004611390565b6103e5565b6040516001600160a01b039091168152602001610124565b34801561019357600080fd5b506101a76101a23660046113c5565b61040e565b005b3480156101b557600080fd5b506101a76101c43660046113ef565b61041d565b6101a76101d7366004611390565b6104ad565b3480156101e857600080fd5b506101a76101f73660046113ef565b6106e2565b6101a761020a3660046114b7565b610702565b34801561021b57600080fd5b5061016f61022a366004611390565b6108c8565b34801561023b57600080fd5b5061024f61024a366004611510565b6108d3565b604051908152602001610124565b34801561026957600080fd5b5061014261091b565b34801561027e57600080fd5b506101a761028d36600461152b565b61092a565b34801561029e57600080fd5b506101a76102ad366004611567565b610935565b3480156102be57600080fd5b5061024f6102cd366004611510565b6001600160a01b03166000908152600a602052604090205490565b3480156102f457600080fd5b50610142610303366004611390565b61094d565b34801561031457600080fd5b506101186103233660046115e3565b610a5e565b60006001600160e01b03198216632483248360e11b148061034d575061034d82610a8c565b92915050565b60606000805461036290611616565b80601f016020809104026020016040519081016040528092919081815260200182805461038e90611616565b80156103db5780601f106103b0576101008083540402835291602001916103db565b820191906000526020600020905b8154815290600101906020018083116103be57829003601f168201915b5050505050905090565b60006103f082610adc565b506000828152600460205260409020546001600160a01b031661034d565b610419828233610b15565b5050565b6001600160a01b03821661044c57604051633250574960e11b8152600060048201526024015b60405180910390fd5b6000610459838333610b22565b9050836001600160a01b0316816001600160a01b0316146104a7576040516364283d7b60e01b81526001600160a01b0380861660048301526024820184905282166044820152606401610443565b50505050565b6000818152600b60205260409020600381015460ff1661050f5760405162461bcd60e51b815260206004820152601960248201527f5468697320746f6b656e206973206e6f74206c69737465642e000000000000006044820152606401610443565b80600201543410156105895760405162461bcd60e51b815260206004820152603860248201527f506c65617365207375626d6974207468652061736b696e67207072696365207460448201527f6f20636f6d706c657465207468652070757263686173652e00000000000000006064820152608401610443565b6001810154336001600160a01b03909116036105e75760405162461bcd60e51b815260206004820152601e60248201527f596f752063616e6e6f742062757920796f7572206f776e20746f6b656e2e00006044820152606401610443565b60018101546001600160a01b03166108fc606461060534603c611666565b61060f919061167d565b6040518115909202916000818181858888f19350505050158015610637573d6000803e3d6000fd5b506008546001600160a01b03166108fc6064610654346028611666565b61065e919061167d565b6040518115909202916000818181858888f19350505050158015610686573d6000803e3d6000fd5b5060018101546106a0906001600160a01b03163384610c1b565b60038101805460ff191690556001808201546001600160a01b03166000908152600a6020526040812080549091906106d990849061169f565b90915550505050565b6106fd83838360405180602001604052806000815250610935565b505050565b336000908152600a60205260409020546003116107755760405162461bcd60e51b815260206004820152602b60248201527f596f752063616e206f6e6c79206c69737420757020746f203320746f6b656e7360448201526a1030ba1030903a34b6b29760a91b6064820152608401610443565b6007805460009182610786836116b2565b9190505590506107963382610ccb565b6107a08184610d30565b604080516080810182528281523360208083018281528385018781526001606086018181526000898152600b865288812097518855935187830180546001600160a01b0319166001600160a01b039092169190911790559151600287015590516003909501805460ff191695151595909517909455918252600a90529182208054919290916108309084906116cb565b90915550506000818152600b60205260408082206001015460095491516001600160a01b039091169282156108fc02929190818181858888f1935050505015801561087f573d6000803e3d6000fd5b506040805133815260208101849052600181830152905182917f50ce914490c99883c5b4da24e275808507a20860c01fcf9798cfd53e2cb5180d919081900360600190a2505050565b600061034d82610adc565b60006001600160a01b0382166108ff576040516322718ad960e21b815260006004820152602401610443565b506001600160a01b031660009081526003602052604090205490565b60606001805461036290611616565b610419338383610d80565b61094084848461041d565b6104a73385858585610e1f565b606061095882610adc565b506000828152600660205260408120805461097290611616565b80601f016020809104026020016040519081016040528092919081815260200182805461099e90611616565b80156109eb5780601f106109c0576101008083540402835291602001916109eb565b820191906000526020600020905b8154815290600101906020018083116109ce57829003601f168201915b505050505090506000610a0960408051602081019091526000815290565b90508051600003610a1b575092915050565b815115610a4d578082604051602001610a359291906116de565b60405160208183030381529060405292505050919050565b610a5684610f4a565b949350505050565b6001600160a01b03918216600090815260056020908152604080832093909416825291909152205460ff1690565b60006001600160e01b031982166380ac58cd60e01b1480610abd57506001600160e01b03198216635b5e139f60e01b145b8061034d57506301ffc9a760e01b6001600160e01b031983161461034d565b6000818152600260205260408120546001600160a01b03168061034d57604051637e27328960e01b815260048101849052602401610443565b6106fd8383836001610fbf565b6000828152600260205260408120546001600160a01b0390811690831615610b4f57610b4f8184866110c5565b6001600160a01b03811615610b8d57610b6c600085600080610fbf565b6001600160a01b038116600090815260036020526040902080546000190190555b6001600160a01b03851615610bbc576001600160a01b0385166000908152600360205260409020805460010190555b60008481526002602052604080822080546001600160a01b0319166001600160a01b0389811691821790925591518793918516917fddf252ad1be2c89b69c2b068fc378daa952ba7f163c4a11628f55a4df523b3ef91a4949350505050565b6001600160a01b038216610c4557604051633250574960e11b815260006004820152602401610443565b6000610c5383836000610b22565b90506001600160a01b038116610c7f57604051637e27328960e01b815260048101839052602401610443565b836001600160a01b0316816001600160a01b0316146104a7576040516364283d7b60e01b81526001600160a01b0380861660048301526024820184905282166044820152606401610443565b6001600160a01b038216610cf557604051633250574960e11b815260006004820152602401610443565b6000610d0383836000610b22565b90506001600160a01b038116156106fd576040516339e3563760e11b815260006004820152602401610443565b6000828152600660205260409020610d488282611755565b506040518281527ff8e1a15aba9398e019f0b49df1a4fde98ee17ae345cb5f6b5e2c27f5033e8ce79060200160405180910390a15050565b6001600160a01b038216610db257604051630b61174360e31b81526001600160a01b0383166004820152602401610443565b6001600160a01b03838116600081815260056020908152604080832094871680845294825291829020805460ff191686151590811790915591519182527f17307eab39ab6107e8899845ad3d59bd9653f200f220920489ca2b5937696c31910160405180910390a3505050565b6001600160a01b0383163b15610f4357604051630a85bd0160e11b81526001600160a01b0384169063150b7a0290610e61908890889087908790600401611815565b6020604051808303816000875af1925050508015610e9c575060408051601f3d908101601f19168201909252610e9991810190611852565b60015b610f05573d808015610eca576040519150601f19603f3d011682016040523d82523d6000602084013e610ecf565b606091505b508051600003610efd57604051633250574960e11b81526001600160a01b0385166004820152602401610443565b805181602001fd5b6001600160e01b03198116630a85bd0160e11b14610f4157604051633250574960e11b81526001600160a01b0385166004820152602401610443565b505b5050505050565b6060610f5582610adc565b506000610f6d60408051602081019091526000815290565b90506000815111610f8d5760405180602001604052806000815250610fb8565b80610f9784611129565b604051602001610fa89291906116de565b6040516020818303038152906040525b9392505050565b8080610fd357506001600160a01b03821615155b15611095576000610fe384610adc565b90506001600160a01b0383161580159061100f5750826001600160a01b0316816001600160a01b031614155b801561102257506110208184610a5e565b155b1561104b5760405163a9fbf51f60e01b81526001600160a01b0384166004820152602401610443565b81156110935783856001600160a01b0316826001600160a01b03167f8c5be1e5ebec7d5bd14f71427d1e84f3dd0314c0f7b2291e5b200ac8c7c3b92560405160405180910390a45b505b5050600090815260046020526040902080546001600160a01b0319166001600160a01b0392909216919091179055565b6110d08383836111bc565b6106fd576001600160a01b0383166110fe57604051637e27328960e01b815260048101829052602401610443565b60405163177e802f60e01b81526001600160a01b038316600482015260248101829052604401610443565b606060006111368361121f565b600101905060008167ffffffffffffffff8111156111565761115661142b565b6040519080825280601f01601f191660200182016040528015611180576020820181803683370190505b5090508181016020015b600019016f181899199a1a9b1b9c1cb0b131b232b360811b600a86061a8153600a850494508461118a57509392505050565b60006001600160a01b03831615801590610a565750826001600160a01b0316846001600160a01b031614806111f657506111f68484610a5e565b80610a565750506000908152600460205260409020546001600160a01b03908116911614919050565b60008072184f03e93ff9f4daa797ed6e38ed64bf6a1f0160401b831061125e5772184f03e93ff9f4daa797ed6e38ed64bf6a1f0160401b830492506040015b6d04ee2d6d415b85acef8100000000831061128a576d04ee2d6d415b85acef8100000000830492506020015b662386f26fc1000083106112a857662386f26fc10000830492506010015b6305f5e10083106112c0576305f5e100830492506008015b61271083106112d457612710830492506004015b606483106112e6576064830492506002015b600a831061034d5760010192915050565b6001600160e01b03198116811461130d57600080fd5b50565b60006020828403121561132257600080fd5b8135610fb8816112f7565b60005b83811015611348578181015183820152602001611330565b50506000910152565b6000815180845261136981602086016020860161132d565b601f01601f19169290920160200192915050565b602081526000610fb86020830184611351565b6000602082840312156113a257600080fd5b5035919050565b80356001600160a01b03811681146113c057600080fd5b919050565b600080604083850312156113d857600080fd5b6113e1836113a9565b946020939093013593505050565b60008060006060848603121561140457600080fd5b61140d846113a9565b925061141b602085016113a9565b9150604084013590509250925092565b634e487b7160e01b600052604160045260246000fd5b600067ffffffffffffffff8084111561145c5761145c61142b565b604051601f8501601f19908116603f011681019082821181831017156114845761148461142b565b8160405280935085815286868601111561149d57600080fd5b858560208301376000602087830101525050509392505050565b600080604083850312156114ca57600080fd5b823567ffffffffffffffff8111156114e157600080fd5b8301601f810185136114f257600080fd5b61150185823560208401611441565b95602094909401359450505050565b60006020828403121561152257600080fd5b610fb8826113a9565b6000806040838503121561153e57600080fd5b611547836113a9565b91506020830135801515811461155c57600080fd5b809150509250929050565b6000806000806080858703121561157d57600080fd5b611586856113a9565b9350611594602086016113a9565b925060408501359150606085013567ffffffffffffffff8111156115b757600080fd5b8501601f810187136115c857600080fd5b6115d787823560208401611441565b91505092959194509250565b600080604083850312156115f657600080fd5b6115ff836113a9565b915061160d602084016113a9565b90509250929050565b600181811c9082168061162a57607f821691505b60208210810361164a57634e487b7160e01b600052602260045260246000fd5b50919050565b634e487b7160e01b600052601160045260246000fd5b808202811582820484141761034d5761034d611650565b60008261169a57634e487b7160e01b600052601260045260246000fd5b500490565b8181038181111561034d5761034d611650565b6000600182016116c4576116c4611650565b5060010190565b8082018082111561034d5761034d611650565b600083516116f081846020880161132d565b83519083019061170481836020880161132d565b01949350505050565b601f8211156106fd576000816000526020600020601f850160051c810160208610156117365750805b601f850160051c820191505b81811015610f4157828155600101611742565b815167ffffffffffffffff81111561176f5761176f61142b565b6117838161177d8454611616565b8461170d565b602080601f8311600181146117b857600084156117a05750858301515b600019600386901b1c1916600185901b178555610f41565b600085815260208120601f198616915b828110156117e7578886015182559484019460019091019084016117c8565b50858210156118055787850151600019600388901b60f8161c191681555b5050505050600190811b01905550565b6001600160a01b038581168252841660208201526040810183905260806060820181905260009061184890830184611351565b9695505050505050565b60006020828403121561186457600080fd5b8151610fb8816112f756fea2646970667358221220cfbdb57306bd83ebe92b4d9d32674ca862b60ad24a7d1f6de124460f7793359264736f6c63430008190033","linkReferences":{}},"methodIdentifiers":{"approve(address,uint256)":"095ea7b3","balanceOf(address)":"70a08231","buyToken(uint256)":"2d296bf1","createAndListToken(string,uint256)":"5f0bc118","getApproved(uint256)":"081812fc","getSellerListedTokensCount(address)":"bf57382c","isApprovedForAll(address,address)":"e985e9c5","name()":"06fdde03","ownerOf(uint256)":"6352211e","safeTransferFrom(address,address,uint256)":"42842e0e","safeTransferFrom(address,address,uint256,bytes)":"b88d4fde","setApprovalForAll(address,bool)":"a22cb465","supportsInterface(bytes4)":"01ffc9a7","symbol()":"95d89b41","tokenURI(uint256)":"c87b56dd","transferFrom(address,address,uint256)":"23b872dd"},"id":18}